:1000000045C0000060C000005EC000005CC0000091
:100010005AC0000058C0000056C0000054C0000084
:1000200052C0000050C000004EC000004CC0000094
:100030004AC0000048C0000046C0000044C00000A4
:10004000A9C2000040C000007CC300003CC000000A
:100050003AC0000038C0000036C0000034C00000C4
:1000600032C0000030C000002EC000002CC00000D4
:100070002AC0000028C0000026C0000024C00000E4
:1000800022C0000020C000001EC0000011241FBEBE
:10009000CFEFD0E1DEBFCDBF11E0A0E0B1E0E8E1FD
:1000A000F0E100E00BBF02C007900D92AE38B1073F
:1000B000D9F725E0AEE8B1E001C01D92A03AB20741
:1000C000E1F7CAD2A7C79CCF0F931F93CF93DF93BB
:1000D000C82F80ED8C0F8A30D8F48091F601909172
:1000E000F701833191050CF07BC19C012F5F3F4FDD
:1000F0003093F7012093F601FC01E850FE4FC083D6
:10010000F901E850FE4F10828C2F90E0A1D468C115
:10011000CB3249F0CD3239F0CA3229F0CF3219F062
:10012000CD3309F05DC18091F6019091F701181669
:10013000190604F588EF91E03DD44091900150916B
:1001400091019A012F5F3F4F3093910120939001CD
:100150009A01220F331F220F331FF901EA55FE4F78
:1001600060837183828393831092F7011092F6016A
:100170001092F801CD3309F016C120919001309111
:100180009101121613060CF002C180918E0190911C
:100190008F0101962817390709F0F9C0A6C0F801A8
:1001A000EE56FE4F80818A3219F08F3209F09AC0E4
:1001B0008A32C9F4F801EE0FFF1FEE0FFF1FEA5558
:1001C000FE4F2081318142815381F8013196EE0F3B
:1001D000FF1FEE0FFF1FEA55FE4F60817181828184
:1001E00093815BD331C08F3261F5F8013196EE0F08
:1001F000FF1FEE0FFF1FEA55FE4F20813181428124
:100200005381211531054105510579F0F801EE0FB3
:10021000FF1FEE0FFF1FEA55FE4F60817181828143
:1002200093815DD3CA01B9010FC082E291E015D478
:10023000109291011092900110928F0110928E01F4
:10024000CFC060E070E0CB01F801EE0FFF1FEE0FB2
:10025000FF1FEA55FE4F6083718382839383C80139
:1002600001961AC09C012F5F3F4FF901EE0FFF1F4F
:10027000EE0FFF1FEA55FE4F40815181628173816D
:10028000880F991F880F991FFC01EA55FE4F408384
:10029000518362837383C901209190013091910150
:1002A0002150310982179307ECF2C8010CC0AC0150
:1002B0004F5F5F4FFA01EE56FE4F6081FC01EE5634
:1002C000FE4F6083CA01AE01415051098417950762
:1002D00074F3309391012093900150938F014093D8
:1002E0008E0105C00F5F1F4F02C000E010E0C091FB
:1002F0008E01D0918F010C171D070CF450CF409147
:10030000A6015091A7016091A8017091A90180E018
:1003100090E02AC0FC01EE56FE4F20812B3289F47A
:10032000FC013196EE0FFF1FEE0FFF1FEA55FE4F47
:100330000081118122813381400F511F621F731F81
:1003400012C02D3281F4FC013196EE0FFF1FEE0F2B
:10035000FF1FEA55FE4F0081118122813381401B2E
:10036000510B620B730B01968C179D079CF27F93C8
:100370006F935F934F938DE491E09F938F9355D349
:100380000F900F900F900F900F900F9003C086E585
:1003900091E063D3109291011092900110928F011D
:1003A00010928E011DC080918E0190918F01843139
:1003B00091055CF49C012F5F3F4F30938F01209398
:1003C0008E01FC01EE56FE4FC0831F92CF938CE549
:1003D00091E09F938F9329D30F900F900F900F90E0
:1003E000DF91CF911F910F9108958FE08ABB8FEF1E
:1003F0008BBB08951F93CF93DF93CDB7DEB7609784
:100400000FB6F894DEBF0FBECDBFFE01319620E1DE
:10041000DF011D922A95E9F720E329832DE32A8342
:100420002BE22B8324E32D8325E32E8326E32F83E6
:100430002AE2288727E3298728E32A8729E32B87CD
:100440002DE22C8721E32D8722E32E8723E32F87BC
:100450002FE2288B2FEF2BBB4BB3E3E0F0E0E61B42
:10046000F70B21E030E002C0220F331FEA95E2F7DC
:10047000209524232BBB20E030E002C02F5F3F4FAC
:1004800024313105DCF349B3FC01349621E030E03E
:100490000E2E02C0220F331F0A94E2F750E02423ED
:1004A000352302C035952795EA95E2F7211118C04A
:1004B000FC01EE0FFF1FEE0FFF1FE050FF4FE60F96
:1004C000F71F3081313061F4880F991F880F991F11
:1004D00080509F4FFC01E60FF71F108210E032C0E2
:1004E000213069F5FC01EE0FFF1FEE0FFF1FE050FA
:1004F000FF4FE60FF71F2081211123C0880F991F9E
:10050000880F991FFC01E050FF4FE60FF71F21E015
:10051000208321E030E02C0F3D1F820F931FFC0150
:10052000E60FF71F10811F921F9381E691E09F93C2
:100530008F937BD20F900F900F900F9003C010E01D
:1005400001C010E0812F60960FB6F894DEBF0FBE99
:10055000CDBFDF91CF911F9108950F931F93CF933C
:10056000DF9300E010E00EC0BE01C80143DF81113F
:100570000CC0219602C0C0E0D0E0C430D105A4F385
:100580000F5F1F4F04301105B4F3DF91CF911F911E
:100590000F9108951F920F920FB60F9211240BB670
:1005A0000F922F933F934F935F936F937F938F930C
:1005B0009F93AF93BF93EF93FF93CF93DF931F92DC
:1005C000CDB7DEB7198286E082BF80910C02909190
:1005D0000D02A0910E02B0910F020196A11DB11D56
:1005E00080930C0290930D02A0930E02B0930F0221
:1005F000CC97A105B10570F010920C0210920D027B
:1006000010920E0210920F02A8DF8983882311F046
:1006100089817CD00F90DF91CF91FF91EF91BF91B5
:10062000AF919F918F917F916F915F914F913F918A
:100630002F910F900BBE0F900FBE0F901F9018952B
:1006400086E082BF83B7887F83BF83B7846083BF20
:1006500087B7816087BF0895F3DF10D1C6DE4BD026
:1006600080E191E090939D0580939C0578941AD049
:100670000197E9F328D028DDFACF80911E019091EF
:100680001F01019664E670E017D12091200130919E
:1006900021018217930719F481E090E0089580E02A
:1006A00090E0089520911E0130911F01809120015A
:1006B000909121012817390719F481E090E00895FD
:1006C00080E090E00895EEDF892B21F08BE691E049
:1006D000C4C108958091200190912101019664E6A2
:1006E00070E0EAD09093210180932001FC01EA5E42
:1006F000FD4F808108958FEF9FEF909321018093AC
:10070000200190931F0180931E010895CF93C82F5D
:10071000B4DF892B21F08EE791E09FD110C080914A
:100720001E0190911F01019664E670E0C5D0909380
:100730001F0180931E01FC01EA5EFD4FC083CF9133
:1007400008951F920F920FB60F9211240BB60F92BD
:100750002F933F934F935F936F937F938F939F93C9
:10076000AF93BF93EF93FF93CF93DF931F92CDB7D8
:10077000DEB78CB1898389818A3019F089818D3007
:10078000C1F5809114029091150201962AE030E0A3
:10079000B90192D0FC018091120290911302B9012B
:1007A0008BD0E817F90709F453C020911402309157
:1007B0001502809110029091110240E5429FF001D4
:1007C000439FF00D1124E658FD4FE80FF91F1082EA
:1007D0001092110210921002809114029091150251
:1007E00001966AE070E068D090931502809314023D
:1007F0002FC0809114029091150201962AE030E0FA
:10080000B9015AD0FC018091120290911302B901F2
:1008100053D0E817F907E1F06091140270911502C6
:1008200080911002909111029C012F5F3F4F3093F5
:10083000110220931002498150E5569F9001579F65
:10084000300D112426583D4FF901E80FF91F408360
:100850000F90DF91CF91FF91EF91BF91AF919F9159
:100860008F917F916F915F914F913F912F910F9059
:100870000BBE0F900FBE0F901F9018951092900016
:100880008FEC89B98BB182608BB98AB188698AB9DA
:1008900008955D9BFECF8CB90895DB018F939F93E4
:1008A0003AD0BF91AF91A29F800D911DA39F900D53
:1008B000B29F900D1124089597FB072E16F4009413
:1008C00006D077FD08D031D007FC05D03EF49095D6
:1008D00081959F4F0895709561957F4F0895052EDE
:1008E00097FB16F400940FD057FD05D032D007FCCB
:1008F00002D046F408C050954095309521953F4F61
:100900004F4F5F4F089590958095709561957F4FFB
:100910008F4F9F4F08953FD0A59F900DB49F900D8E
:10092000A49F800D911D11240895AA1BBB1B51E1AA
:1009300007C0AA1FBB1FA617B70710F0A61BB70B4F
:10094000881F991F5A95A9F780959095BC01CD01F4
:100950000895A1E21A2EAA1BBB1BFD010DC0AA1F00
:10096000BB1FEE1FFF1FA217B307E407F50720F018
:10097000A21BB30BE40BF50B661F771F881F991F93
:100980001A9469F760957095809590959B01AC01DC
:10099000BD01CF010895A29FB001B39FC001A39FE5
:1009A000700D811D1124911DB29F700D811D1124A8
:1009B000911D08951F93FC0199278827BC01E89495
:1009C00011911032E9F3193010F01E30C8F31B32C8
:1009D00049F01D3241F4689405C012D0610F711DB9
:1009E000811D911D119110531A30B8F33EF490956A
:1009F0008095709561957F4F8F4F9F4F1F91089500
:100A0000592F482F372F262F660F771F881F991FC2
:100A1000660F771F881F991F620F731F841F951F12
:100A2000660F771F881F991F0895CF93DF93CDB767
:100A3000DEB7AE014B5F5F4FFA0161917191AF017B
:100A400080919C0590919D0538D0DF91CF910895BC
:100A500060919C0570919D0543C20F931F93CF93A6
:100A6000DF93E0919C05F0919D05238121FF1BC040
:100A70008C01D0E0C0E0F80181918F0160919C056C
:100A800070919D05DB011896ED91FC9119978823D3
:100A900031F00995892B79F3DFEFCFEFECCF8AE0C6
:100AA0000995892B19F08FEF9FEF02C08D2F9C2F96
:100AB000DF91CF911F910F9108952F923F924F9206
:100AC0005F926F927F928F929F92AF92BF92CF92DE
:100AD000DF92EF92FF920F931F93CF93DF93CDB7E7
:100AE000DEB72B970FB6F894DEBF0FBECDBF6C01FB
:100AF0007B018A01FC0117821682838181FFBFC1BD
:100B0000CE0101963C01F6019381F70193FD859199
:100B100093FF81917F01882309F4ADC1853239F4B7
:100B200093FD859193FF81917F01853221F4B60178
:100B300090E0D6D1E8CF912C212C312CFFE1F31598
:100B4000D8F08B3279F038F4803279F08332A1F426
:100B5000232D20611DC08D3261F0803369F4232D77
:100B6000216016C0832D8260382EE32DE4603E2E76
:100B70002AC0F32DF8601DC037FC2DC020ED280FD2
:100B80002A3040F08E32B9F436FC75C1232D206432
:100B9000322E19C036FE06C08AE0989E200D112420
:100BA000922E11C0EAE02E9E200D1124222EF32D4C
:100BB000F0623F2E08C08C3621F4832D8068382ED9
:100BC00002C0883641F4F70193FD859193FF81912E
:100BD0007F018111B3CF982F9F7D9554933028F4D6
:100BE0000C5F1F4F9FE399830DC0833631F083372D
:100BF00071F0833509F055C020C0F80180818983E8
:100C00000E5F1F4F88248394912C530112C028013A
:100C1000F2E04F0E511CF801A080B18036FE03C0F7
:100C2000692D70E002C06FEF7FEFC5014ED14C011E
:100C30008201F32DFF773F2E15C0280122E0420EDE
:100C4000511CF801A080B18036FE03C0692D70E010
:100C500002C06FEF7FEFC5012DD14C01F32DF0687D
:100C60003F2E820133FC19C0822D90E08816990630
:100C7000A0F4B60180E290E033D12A94F5CFF501DB
:100C800037FC859137FE81915F01B60190E028D154
:100C900021102A9421E0821A91088114910479F795
:100CA000E1C0843611F0893639F5F80137FE07C006
:100CB00060817181828193810C5F1F4F08C06081C8
:100CC0007181072E000C880B990B0E5F1F4FF32DBF
:100CD000FF763F2E97FF09C090958095709561959E
:100CE0007F4F8F4F9F4FF0683F2E2AE030E0A301E7
:100CF00033D1882E861844C0853731F4232D2F7EBA
:100D0000B22E2AE030E025C0932D997FB92E8F3680
:100D1000C1F018F4883579F0AEC0803719F0883703
:100D200021F0A9C0E92FE061BE2EB4FE0DC0FB2D5D
:100D3000F460BF2E09C034FE0AC0292F2660B22EEF
:100D400006C028E030E005C020E130E002C020E12C
:100D500032E0F801B7FE07C0608171818281938122
:100D60000C5F1F4F06C06081718180E090E00E5FD4
:100D70001F4FA301F1D0882E8618FB2DFF773F2E41
:100D800036FE0DC0232D2E7FA22E891458F434FE7A
:100D90000BC032FC09C0832D8E7EA82E05C0B82C56
:100DA000A32C03C0B82C01C0B92CA4FE0FC0FE01B7
:100DB000E80DF11D8081803321F49A2D997EA92EB2
:100DC00009C0A2FE06C0B394B39404C08A2D8678ED
:100DD00009F0B394A3FC10C0A0FE06C0B21480F4C6
:100DE000280C922C9B180DC0B21458F4B60180E266
:100DF00090E076D0B394F8CFB21418F42B1802C058
:100E0000982C212CA4FE0FC0B60180E390E068D09E
:100E1000A2FE16C0A1FC03C088E790E002C088E5EE
:100E200090E0B6010CC08A2D867851F0A1FE02C078
:100E30008BE201C080E2A7FC8DE2B60190E050D0C9
:100E4000891430F4B60180E390E04AD09A94F8CF48
:100E50008A94F301E80DF11D8081B60190E040D045
:100E60008110F6CF222009F44ECEB60180E290E048
:100E700037D02A94F7CFF6018681978102C08FEF91
:100E80009FEF2B960FB6F894DEBF0FBECDBFDF915C
:100E9000CF911F910F91FF90EF90DF90CF90BF9077
:100EA000AF909F908F907F906F905F904F903F900A
:100EB0002F900895FC010590615070400110D8F703
:100EC000809590958E0F9F1F0895FC016150704092
:100ED00001900110D8F7809590958E0F9F1F08956F
:100EE0000F931F93CF93DF93FB01238121FD03C059
:100EF0008FEF9FEF2CC022FF16C0468157812481BF
:100F000035814217530744F4A081B1819D012F5FC1
:100F10003F4F318320838C93268137812F5F3F4F52
:100F20003783268314C08B01EC01FB010084F1851B
:100F3000E02D0995892BE1F6D80116968D919C91AB
:100F40001797019617969C938E931697CE01DF9173
:100F5000CF911F910F910895FA01AA27283051F1DE
:100F6000203181F1E8946F936E7F6E5F7F4F8F4FDA
:100F70009F4FAF4FB1E03ED0B4E03CD0670F781F39
:100F8000891F9A1FA11D680F791F8A1F911DA11D1E
:100F90006A0F711D811D911DA11D20D009F4689457
:100FA0003F912AE0269F11243019305D3193DEF6FF
:100FB000CF010895462F4770405D4193B3E00FD0B5
:100FC000C9F7F6CF462F4F70405D4A3318F0495DA0
:100FD00031FD4052419302D0A9F7EACFB4E0A69583
:100FE0009795879577956795BA95C9F700976105A5
:100FF000710508959B01AC010A2E069457954795FB
:1010000037952795BA95C9F7620F731F841F951FEF
:08101000A01D0895F894FFCF24
:1010180001010101000000000000000000000000C4
:101028000000000200000000490400000000FFFF6B
:10103800FFFF0A5B4572726F725D2030EC9CBCEB5F
:10104800A19C20EB8298EB888C20EC889820EC9768
:1010580086EC8AB5EB8B88EB8BA42E0D00203D2007
:10106800256C640D0A00203D20300D0020256320EA
:10107800006B6579203A2025630A0051756575650E
:1010880020697320656D70747920212121007175A4
:0E1098006575652066756C6C212121210000B4
:00000001FF
