S00E000031332E43414C2E73726563B4
S113000045C0000062C0000060C000005EC0000087
S11300105CC000005AC0000058C0000056C0000078
S113002054C0000052C0000050C000004EC0000088
S11300304CC000004AC0000048C0000046C0000098
S11300400C94330842C000000C943E0B3EC00000E8
S11300503CC000003AC0000038C0000036C00000B8
S113006034C0000032C0000030C000002EC00000C8
S11300702CC000002AC0000028C0000026C00000D8
S113008024C0000022C0000020C0000011241FBEB4
S1130090CFEFD0E1DEBFCDBF12E0A0E0B1E0E8E3F6
S11300A0FFE100E00BBF02C007900D92A03BB10737
S11300B0D9F726E0A0EBB2E001C01D92AC38B2073C
S11300C0E1F70E94A0080C949A0F9ACF81B38B7029
S11300D081BB089520B330E002C0359527956A9519
S11300E0E2F7A9014170552720FF14C0FC01E05537
S11300F0FD4F208121110EC0EFE5FAEE3197F1F7A3
S113010000C00000FC01E055FD4F21E0208340E0E9
S113011050E018C04115510599F4FC01E055FD4F1C
S11301202081213079F4EFE5FAEE3197F1F700C040
S11301300000FC01E055FD4F108241E050E002C098
S113014040E050E0CA010895BC0120E030E040E006
S113015050E00CC0983219F44F5F5F4F05C09932DC
S113016019F44150510972F02F5F3F4FFB01E20F28
S1130170F31F90819111EECF81E0452B09F080E0CF
S113018090E0089580E090E008958B3249F08D323C
S113019051F08A3259F08F3261F482E090E0089590
S11301A081E090E0089581E090E0089582E090E09D
S11301B0089580E090E008958F929F92AF92BF924D
S11301C0EF92FF920F931F934A015B018B3249F028
S11301D018F48A32A1F02EC08D3251F08F32B1F072
S11301E029C0C901B801680D791D8A1D9B1D25C050
S11301F0C901B801681979098A099B091EC0A901B6
S11302009801C501B4010E94EA0B17C0452B462B87
S1130210472B39F4F7011182108260E070E0CB01C2
S11302200CC0C901B801A50194010E940C0CCA01BB
S1130230B90103C060E070E0CB011F910F91FF9002
S1130240EF90BF90AF909F908F9008952F923F9220
S11302504F925F926F927F928F929F92AF92BF92D2
S1130260CF92DF92EF92FF920F931F93CF93DF937E
S1130270CDB7DEB7CB5CD1090FB6F894DEBF0FBEA5
S1130280CDBF4C01C753DF4F79836883C95CD0402D
S1130290C12CD12CAA24AA94BA2C0FEF1FEF23C18E
S11302A0803209F41DC1282F30E0205331092A304F
S11302B0310510F141C0880F991FAA1FBB1F2C01E3
S11302C03D01440C551C661C771C440C551C661CD3
S11302D0771C840D951DA61DB71D50E04053510990
S11302E0052E000C660B770B840F951FA61FB71FF6
S11302F02FEFC21AD20A03C080E090E0DC01F401BF
S1130300EC0DFD1D408120ED240F2A30A0F231E0D8
S1130310C31AD1080F5F1F4FF801EE0FFF1FEE0F36
S1130320FF1F21E030E02C0F3D1FE20FF31F8083FD
S11303309183A283B383D4C0883259F43FEFA31AC4
S1130340B30AE1EAF0E0EC0FFD1FEA0DFB1D808328
S1130350C7C0893209F051C03DC0280191E0491A53
S11303605108000F111F000F111FE1E0F0E0EC0F26
S1130370FD1FE00FF11F40815181628173811201E1
S1130380220C331C220C331CE1E0F0E0EC0FFD1FC7
S11303902E0E3F1EF1010081118122813381F1E093
S11303A0AF1AB108C753DF4FE880F980C95CD04069
S11303B003DFF1016083718382839383C753DF4F2B
S11303C0E881F981C95CD04080819181892B09F44D
S11303D0ECC08201BB2054F0E1EAF0E0EC0FFD1F19
S11303E0EA0DFB1D8081883209F0B7CFBB200CF4E5
S11303F077C0F1E0AF1AB10873C08B3209F44CC076
S11304008D3209F449C08A3209F446C08F3209F0AA
S113041067C042C0280121E0421A5108000F111F91
S1130420000F111FE1E0F0E0EC0FFD1FE00FF11FE2
S113043040815181628173811201220C331C220C90
S1130440331C81E090E08C0F9D1F280E391EF101B2
S11304500081118122813381F1E0AF1AB108C753C1
S1130460DF4FE880F980C95CD040C553DF4F8881F5
S1130470CB5CD040A1DEF1016083718382839383DE
S1130480C753DF4FE881F981C95CD04080819181F5
S1130490892B09F48EC08201BB20B4F0E1EAF0E0BC
S11304A0EC0FFD1FEA0DFB1D2081C553DF4F288390
S11304B0CB5CD040822F69DE7C01F301808165DE54
S11304C0E816F9060CF0A6CFFFEFAF1ABF0AF30146
S11304D08081E1EAF0E0EC0FFD1FEA0DFB1D808353
S11304E0FFEFCF1ADF0A34016C0C7D1CF30180810D
S11304F08111D6CE45C06801F1E0CF1AD108000FB2
S1130500111F000F111FE1E0F0E0EC0FFD1FE00FE1
S1130510F11F40815181628173814601880C991CCD
S1130520880C991C21E030E02C0F3D1F820E931E95
S1130530F40100811181228133812501F1E04F1AF8
S11305405108E1EAF0E0EC0FFD1FEA0DFB1DC75373
S1130550DF4FE880F980C95CD04080812DDEF40152
S11305606083718382839383C753DF4FE881F9816A
S1130570C95CD04080819181892BF9F052018601B8
S1130580BB200CF0B8CF01151105D9F4000F111FD1
S1130590000F111FE1E0F0E0EC0FFD1FE00FF11F71
S11305A060817181828193810FC060E070E0CB0132
S11305B00BC060E070E0CB0107C060E070E0CB01ED
S11305C003C060E070E0CB01C553DF4F0FB6F89471
S11305D0DEBF0FBECDBFDF91CF911F910F91FF9072
S11305E0EF90DF90CF90BF90AF909F908F907F90CF
S11305F06F905F904F903F902F900895AED488E213
S1130600ECEBF2E0DF011D928A95E9F71092BB0250
S11306101092BA021092B9020895CF93DF939DD439
S113062060E080E016D5C0E0D0E006C0FE01E454EE
S1130630FD4F80814ED421968091BA029091BB02E5
S1130640C817D9071CF4C031D10584F34197B4F01D
S113065060E081E0FED4C0E1D0E006C0FE01E454D5
S1130660FD4F808136D421968091BA029091BB02CD
S1130670C817D9071CF4C832D10584F3DF91CF9190
S11306800895CF92DF92EF92FF920F931F93CF932F
S1130690DF93CDB7DEB762970FB6F894DEBF0FBE17
S11306A0CDBF182F833411F0833631F4A7DF8EE2E7
S11306B091E00E948F0CB8C08091B90281119EDF35
S11306C0123411F0123609F58091BA029091BB02EE
S11306D0181619060CF0A8C001979093BB028093DA
S11306E0BA020CEB12E0FC01E454FD4F108295DFDA
S11306F01F930F938CE391E09F938F930E94770C49
S11307000F900F900F900F908FC080ED810F8A3063
S113071060F01B3251F01D3241F01A3231F01F32B9
S113072021F0183211F01932E9F48091BA02909153
S1130730BB02873291050CF077C09C012F5F3F4FBD
S11307403093BB022093BA02FC01E454FD4F1083A2
S1130750F901E454FD4F108260DF812F90E00E9484
S11307608A0C62C01D3309F05FC085E591E00E94E8
S11307708F0C8CEB92E0E8DC892B79F4EED360E00B
S113078080E067D487E591E052D48AE691E00E9444
S11307908F0C81E08093B90247C081E090E09A8B8E
S11307A0898BBE016F5E7F4F8CEB92E04FDD162F7D
S11307B0072FF82EE92ED1D360E080E04AD488E8F0
S11307C091E035D460E081E044D489899A89892B09
S11307D041F480E991E02BD480EA91E00E948F0CEF
S11307E020C0EF92FF920F931F938AEB91E09F93A7
S11307F08F93CE0101966C019F938F930E94BF0C3F
S1130800C60115D4EF92FF920F931F938EEB91E0E4
S11308109F938F930E94770C0FB6F894DEBF0FBEA0
S1130820CDBF81E08093B90262960FB6F894DEBF23
S11308300FBECDBFDF91CF911F910F91FF90EF902D
S1130840DF90CF900895CF92DF92EF92FF920F93B3
S11308501F93CF93DF93EC016A017B01890189EC3B
S113086091E00E948F0C8B818F938A818F93898171
S11308708F9388818F93F80181818F9380818F93E7
S113088082ED91E09F938F930E94770C88819981E8
S1130890AA81BB812DB73EB7285F3F4F0FB6F894AE
S11308A03EBF0FBE2DBF8C159D05AE05BF0548F09C
S11308B0F8011182108251D38EEE91E00E948F0CC8
S11308C05CC062E070E080E090E004DCE82E64E06C
S11308D070E081E090E0FEDBF82E65E070E082E0FD
S11308E090E0F8DB082F66E070E083E090E0F2DB54
S11308F0182FEE2051F08091B802811106C083E4D4
S1130900C0DE188219821A821B82FF2051F0809166
S1130910B702811106C082E4B4DE188219821A82F9
S11309201B82002351F08091B602811106C088E237
S1130930A8DE188219821A821B82112351F0809139
S1130940B502811106C089E29CDE188219821A82DE
S11309501B82E092B802F092B7020093B6021093A1
S1130960B5025FD6811109C043D6182F18821982A7
S11309701A821B8280D2812F84DEDF91CF911F9156
S11309800F91FF90EF90DF90CF9008959DEC899F99
S1130990912D1124969596959695392F330F232FE3
S11309A0220F220F230F821B20E1929F800D11241E
S11309B00895982F92959F70990F292F220F220F37
S11309C0920F8F70890F089581B38D7F81BB81B39E
S11309D08E7F81BB82B3826082BB82B3816082BB23
S11309E08AE18A95F1F700C082B38D7F82BB81B31F
S11309F0826081BB8AE18A95F1F700C082B38E7F61
S1130A0082BB81B3816081BB8AE18A95F1F700C022
S1130A10089582B38D7F82BB81B3826081BB8AE1FA
S1130A208A95F1F700C081B38E7F81BB8AE18A95F4
S1130A30F1F700C081B38D7F81BB8AE18A95F1F71C
S1130A4000C0089540E050E02FC020E830E0042EBC
S1130A5002C0359527950A94E2F7682F70E02623A3
S1130A603723232B21F091B39D7F91BB06C092B312
S1130A709D7F92BB91B3926091BB9AE19A95F1F7F5
S1130A8000C091B39E7F91BB9AE19A95F1F700C0A3
S1130A9092B39E7F92BB91B3916091BB9AE19A9578
S1130AA0F1F700C04F5F5F4F4830510574F281B3D6
S1130AB08D7F81BB8AE18A95F1F700C081B38E7F77
S1130AC081BB9AE19A95F1F700C082B38E7F82BB15
S1130AD081B3816081BB8AE18A95F1F700C00895F2
S1130AE0CF93DF93D82FC62F6FDF80EDABDF8D2F31
S1130AF0A9DF8C2F4BDFA6DF8CDFDF91CF91089528
S1130B00CF93DF93C9EFD2E0688180E0E9DF6981A8
S1130B1081E0E6DF6A8182E0E3DF6B8183E0E0DF8E
S1130B206C8184E0DDDF6D8185E0DADF6E8186E053
S1130B30D7DFDF91CF910895682F91B39D7F91BB4B
S1130B4020E030E080E01EC09AE19A95F1F700C001
S1130B5091B39E7F91BB9AE19A95F1F700C0819B76
S1130B6009C040E850E0022E02C0559547950A940A
S1130B70E2F7842B92B39E7F92BB91B3916091BBB9
S1130B802F5F3F4F28303105FCF2662339F092B3D2
S1130B909D7F92BB91B3926091BB03C091B39D7F43
S1130BA091BB9AE19A95F1F700C091B39E7F91BBF6
S1130BB09AE19A95F1F700C092B39E7F92BB91B3EC
S1130BC0916091BB9AE19A95F1F700C091B39D7F32
S1130BD091BB0895FF920F931F93CF93DF93CDB7EB
S1130BE0DEB727970FB6F894DEBF0FBECDBFECDE9D
S1130BF080ED28DF80E026DFE7DE81ED23DF00E003
S1130C0010E00BC081E098DFE1E0F0E0EC0FFD1FA5
S1130C10E00FF11F80830F5F1F4F0630110594F31F
S1130C2080E08ADFF82EF5DE89818F77C2DE09EF56
S1130C3012E0F80180838A81BCDEF80181838B8114
S1130C408F73B7DEF80182838C81B3DEF80183836E
S1130C508D81AFDEF80184838E81ABDEF80185835C
S1130C608F2DA7DEF801868327960FB6F894DEBF92
S1130C700FBECDBFDF91CF911F910F91FF900895CB
S1130C8081B38C7F81BB089582B3816082BB82B3C0
S1130C90826082BB8FE19EE40197F1F700C00000FF
S1130CA00895E9EFF2E08AE1868387E0858382E0B4
S1130CB0848386E083838FE0828384E1818310824E
S1130CC008958FE08ABB8FEF8BBBE4E6F0E0808170
S1130CD08460808308951F93CF93DF93CDB7DEB7ED
S1130CE060970FB6F894DEBF0FBECDBFFE013196FC
S1130CF020E1DF011D922A95E9F720E329832DE302
S1130D002A832BE22B8324E32D8325E32E8326E3FE
S1130D102F832AE2288727E3298728E32A8729E3E0
S1130D202B872DE22C8721E32D8722E32E8723E3D3
S1130D302F872FE2288B2FEF2BBB4BB3E3E0F0E0A0
S1130D40E61BF70B21E030E002C0220F331FEA95C7
S1130D50E2F7209524232BBB20E030E002C02F5F74
S1130D603F4F24313105DCF349B3FC01349621E0D3
S1130D7030E00E2E02C0220F331F0A94E2F750E037
S1130D802423352302C035952795EA95E2F72111EE
S1130D9018C0FC01EE0FFF1FEE0FFF1FE050FF4FC6
S1130DA0E60FF71F3081313061F4880F991F880FE7
S1130DB0991F80509F4FFC01E60FF71F108210E02F
S1130DC032C0213069F5FC01EE0FFF1FEE0FFF1F4B
S1130DD0E050FF4FE60FF71F2081211123C0880F39
S1130DE0991F880F991FFC01E050FF4FE60FF71F72
S1130DF021E0208321E030E02C0F3D1F820F931F60
S1130E00FC01E60FF71F10811F921F938FE092E001
S1130E109F938F936CD50F900F900F900F9003C0FA
S1130E2010E001C010E0812F60960FB6F894DEBF89
S1130E300FBECDBFDF91CF911F9108950F931F93E4
S1130E40CF93DF9300E010E00EC0BE01C80143DF82
S1130E5081110CC0219602C0C0E0D0E0C430D1059D
S1130E60A4F30F5F1F4F04301105B4F3DF91CF914A
S1130E701F910F91089520E030E016C0E5E6F0E000
S1130E808081846080838FE396E00197F1F700C04E
S1130E90000080818B7F80838FE396E00197F1F7D8
S1130EA000C000002F5F3F4F283231053CF3089506
S1130EB088B3806888BB8AE08A95F1F700C088B35C
S1130EC08F7788BB87EC90E00197F1F700C00000B2
S1130ED00895CF93C82F88B3806288BB35E03A95D4
S1130EE0F1F7000085B38F709C2F907F892B85BB11
S1130EF0DFDF25B330E1C39FC0011124922F9F701F
S1130F00892B85BBD5DF8FE39FE10197F1F700C003
S1130F100000CF910895CF93C82F88B38F7D88BBED
S1130F2035E03A95F1F7000085B38F709C2F907FE0
S1130F30892B85BBBDDF25B330E1C39FC0011124DC
S1130F40922F9F70892B85BBB3DF8FE39FE10197BD
S1130F50F1F700C00000CF91089581E0DCDF8FED50
S1130F609EE20197F1F700C0000008952FEF80E79B
S1130F7092E0215080409040E1F700C0000084B32B
S1130F80806F84BB87B3806E87BB85B38F7085BB4E
S1130F9088B38F7188BB88B38F7B88BB88B38F7D00
S1130FA088BB85B38F70806385BB82DF8FE19EE44D
S1130FB00197F1F700C0000085B38F70806385BB93
S1130FC077DF87E592E00197F1F700C0000085B371
S1130FD08F70806385BB6CDF87E592E00197F1F742
S1130FE000C0000085B38F70806285BB61DF8FE332
S1130FF09FE10197F1F700C0000088E28CDF8FE3E6
S11310009FE10197F1F700C000008CE084DF8FE3DB
S11310109FE10197F1F700C000009FDF86E07BDFCE
S11310208FE39FE10197F1F700C0000008950F934B
S11310301F93CF938C01C0E002C04BDFCF5FF80158
S1131040EC0FF11D80818111F8CFCF911F910F9189
S113105008956F70817090E4899F600D1124862F2C
S1131060805859CF08951F920F920FB60F921124F2
S11310700BB60F922F933F934F935F936F937F938E
S11310808F939F93AF93BF93EF93FF9386E082BFB9
S11310908091F0028130A9F58091E7029091E802F5
S11310A0A091E902B091EA020196A11DB11D8093BD
S11310B0E7029093E802A093E902B093EA028091D8
S11310C0EB029091EC02A091ED02B091EE02019638
S11310D0A11DB11D8093EB029093EC02A093ED024D
S11310E0B093EE02CC97A105B10558F01092EB0233
S11310F01092EC021092ED021092EE029FDE81112A
S1131100A2D2FF91EF91BF91AF919F918F917F9167
S11311106F915F914F913F912F910F900BBE0F9064
S11311200FBE0F901F90189586E082BF83B7887F0B
S113113083BF83B7846083BF87B7816087BF089507
S1131140CF93DF93CDB7DEB7A0970FB6F894DEBF89
S11311500FBECDBF0BDF0E946600B3DD2CD368D277
S1131160A0DD8EDD91DDCCDCDFDF80E191E09093CA
S1131170890680938806789489E192E058DF2FEFFE
S113118033ED80E3215030408040E1F700C000009F
S1131190E4DE67E070E084E090E00E946A00082FDB
S11311A066E070E083E090E00E946A00182F00235C
S11311B029F18091F202811121C08091F0028230E4
S11311C0E9F091E0811190E09093F002C6DE809105
S11311D0F002813051F483E454DA1092E702109261
S11311E0E8021092E9021092EA029FEFE0E7F2E0CF
S11311F09150E040F040E1F700C000000093F2029B
S11312001123F9F08091F10281111BC08091F00249
S11312108130B9F0811106C082E08093F00210920F
S1131220EF0205C0823019F46BDC1092F00295DEF7
S11312302FEF30E782E0215030408040E1F700C0DA
S113124000001093F1028091F002811142C0C2DCCF
S113125060E080E0FEDE09EF12E0F8012481958170
S113126086811F922F931F929F931F928F9389E2DF
S113127092E09F938F939E012F5F3F4F79013F939D
S11312802F937DD3C701D3DE60E081E0E2DEF80175
S11312902081918182811F922F931F929F931F928D
S11312A08F9380E492E09F938F93FF92EF9267D3A2
S11312B0C701BDDEFFEF23EC39E0F15020403040A0
S11312C0E1F700C000000FB6F894DEBF0FBECDBF3B
S11312D060CF813051F420EF32E040E65AEE60E016
S11312E070E087EE92E0AFDA54CF823009F051CF4C
S11312F062E070E080E090E00E946A00082F64E001
S113130070E081E090E00E946A00182F65E070E0D0
S113131082E090E00E946A00282F8823B1F0809137
S1131320E602811112C08091EF0290E0019666E01E
S113133070E05FD28093EF029FEFE0E7F2E091501C
S1131340E040F040E1F700C00000112309F46AC056
S11313508091E502811166C08091EF0281110AC07B
S1131360E9EFF2E0868190E0019664E670E041D214
S113137086834FC08130A1F4E9EFF2E095818BEAD6
S1131380989F812D1124869586958695382F330F45
S1131390830F382F330F330F931B9F5F958339C00F
S11313A08230A1F4E9EFF2E0848199E0899F312D44
S11313B01124982F931B9695930F92959F703FE15C
S11313C0939F801911248F5F848323C0833051F449
S11313D0E9EFF2E0828190E0019668E170E009D2E1
S11313E0828317C0843051F4E9EFF2E0818190E008
S11313F001966CE370E0FDD181830BC0853049F424
S1131400E9EFF2E0808190E001966CE370E0F1D1C5
S113141080838FEF90E7E2E081509040E040E1F775
S113142000C00000002309F456C08091E402811139
S113143052C08091EF0281110AC08091FF0288237B
S113144011F0815001C083E68093FF023BC08130DC
S113145051F48091FE02813011F0815001C08CE082
S11314608093FE022FC0823051F48091FD028130BE
S113147011F0815001C08FE18093FD0223C08330BD
S113148051F48091FB02882311F0815001C087E15F
S11314908093FB0217C0843051F48091FA028823B0
S11314A011F0815001C08BE38093FA020BC08530A8
S11314B049F48091F902882311F0815001C08BE333
S11314C08093F902FFEF30E782E0F1503040804032
S11314D0E1F700C000000093E4021093E5022093BA
S11314E0E60260E080E0B5DD09EF12E0F801248156
S11314F0958186811F922F931F929F931F928F93A2
S113150085E592E09F938F9321E030E02C0F3D1FFF
S11315103F932F9334D2CE01019689DD60E081E0C0
S113152098DDF8012081918182811F922F931F926F
S11315309F931F928F9389E692E09F938F9321E06C
S113154030E02C0F3D1F3F932F9319D2CE0101960B
S11315506EDD6EE081E07DDD8CE0E2E2F1E0DE0153
S1131560559601900D928A95E1F7E091EF02F0E033
S1131570EE0FFF1F81E090E08C0F9D1FE80FF91F15
S11315808489958954DD9FEFE1EEF4E09150E040C9
S1131590F040E1F700C000000FB6F894DEBF0FBEC4
S11315A0CDBFF7CD80911E0190911F01019664E695
S11315B070E01FD1209120013091210182179307FF
S11315C019F481E090E0089580E090E0089520917E
S11315D01E0130911F018091200190912101281753
S11315E0390719F481E090E0089580E090E00895CF
S11315F0EEDF892B29F08EE892E091D180E0089506
S11316008091200190912101019664E670E0F1D06F
S11316109093210180932001FC01EE5FFC4F8081B7
S11316200895D5DF21E0019709F020E0822F089585
S11316308FEF9FEF909321018093200190931F01DE
S113164080931E010895CF93C82FACDF892B21F01E
S113165081EA92E064D110C080911E0190911F0133
S1131660019664E670E0C5D090931F0180931E013B
S1131670FC01EE5FFC4FC083CF9108951F920F923F
S11316800FB60F9211240BB60F922F933F934F93E3
S11316905F936F937F938F939F93AF93BF93EF93D6
S11316A0FF93CF93DF931F92CDB7DEB78CB18983BD
S11316B089818A3019F089818D30C1F58091F702D2
S11316C09091F80201962AE030E0B90192D0FC0131
S11316D08091F5029091F602B9018BD0E817F907D1
S11316E009F453C02091F7023091F8028091F3027B
S11316F09091F40240E5429FF001439FF00D1124C4
S1131700EA59FC4FE80FF91F10821092F40210926C
S1131710F3028091F7029091F80201966AE070E07A
S113172068D09093F8028093F7022FC08091F7025B
S11317309091F80201962AE030E0B9015AD0FC01F8
S11317408091F5029091F602B90153D0E817F90798
S1131750E1F06091F7027091F8028091F3029091A8
S1131760F4029C012F5F3F4F3093F4022093F30265
S1131770498150E5569F9001579F300D11242A59F5
S11317803C4FF901E80FF91F40830F90DF91CF918F
S1131790FF91EF91BF91AF919F918F917F916F9145
S11317A05F914F913F912F910F900BBE0F900FBE01
S11317B00F901F901895109290008FEC89B98BB1FF
S11317C082608BB98AB188698AB908955D9BFECF1E
S11317D08CB90895DB018F939F933AD0BF91AF9159
S11317E0A29F800D911DA39F900DB29F900D112477
S11317F0089597FB072E16F4009406D077FD08D0C1
S113180031D007FC05D03EF4909581959F4F089503
S1131810709561957F4F0895052E97FB16F40094FB
S11318200FD057FD05D032D007FC02D046F408C0D3
S113183050954095309521953F4F4F4F5F4F0895F8
S113184090958095709561957F4F8F4F9F4F089528
S11318503FD0A59F900DB49F900DA49F800D911D26
S113186011240895AA1BBB1B51E107C0AA1FBB1F6B
S1131870A617B70710F0A61BB70B881F991F5A9518
S1131880A9F780959095BC01CD010895A1E21A2E87
S1131890AA1BBB1BFD010DC0AA1FBB1FEE1FFF1F10
S11318A0A217B307E407F50720F0A21BB30BE40B60
S11318B0F50B661F771F881F991F1A9469F76095A7
S11318C07095809590959B01AC01BD01CF01089561
S11318D0A29FB001B39FC001A39F700D811D11246D
S11318E0911DB29F700D811D1124911D0895CF93F8
S11318F0DF93CDB7DEB7AE014B5F5F4FFA01619165
S11319007191AF01809188069091890666D0DF912C
S1131910CF910895609188067091890671C20F93E2
S11319201F93CF93DF93E0918806F091890623817A
S113193021FF1BC08C01D0E0C0E0F80181918F0130
S11319406091880670918906DB011896ED91FC91EF
S11319501997882331F00995892B79F3DFEFCFEFBD
S1131960ECCF8AE00995892B19F08FEF9FEF02C025
S11319708D2F9C2FDF91CF911F910F9108950F937D
S11319801F93CF93DF93CDB7DEB72E970FB6F8949E
S1131990DEBF0FBECDBF0D891E8986E08C831A83FE
S11319A009838FEF9FE79E838D83AE01475E5F4F70
S11319B06F89788DCE01019610D0EF81F885E00F04
S11319C0F11F10822E960FB6F894DEBF0FBECDBF66
S11319D0DF91CF911F910F9108952F923F924F92D3
S11319E05F926F927F928F929F92AF92BF92CF92AB
S11319F0DF92EF92FF920F931F93CF93DF93CDB7B4
S1131A00DEB72B970FB6F894DEBF0FBECDBF6C01C7
S1131A107B018A01FC0117821682838181FFBFC189
S1131A20CE0101963C01F6019381F70193FD859166
S1131A3093FF81917F01882309F4ADC1853239F484
S1131A4093FD859193FF81917F01853221F4B60145
S1131A5090E0D6D1E8CF912C212C312CFFE1F31565
S1131A60D8F08B3279F038F4803279F08332A1F4F3
S1131A70232D20611DC08D3261F0803369F4232D44
S1131A80216016C0832D8260382EE32DE4603E2E43
S1131A902AC0F32DF8601DC037FC2DC020ED280F9F
S1131AA02A3040F08E32B9F436FC75C1232D2064FF
S1131AB0322E19C036FE06C08AE0989E200D1124ED
S1131AC0922E11C0EAE02E9E200D1124222EF32D19
S1131AD0F0623F2E08C08C3621F4832D8068382EA6
S1131AE002C0883641F4F70193FD859193FF8191FB
S1131AF07F018111B3CF982F9F7D9554933028F4A3
S1131B000C5F1F4F9FE399830DC0833631F08337F9
S1131B1071F0833509F055C020C0F80180818983B4
S1131B200E5F1F4F88248394912C530112C0280107
S1131B30F2E04F0E511CF801A080B18036FE03C0C4
S1131B40692D70E002C06FEF7FEFC5014ED14C01EB
S1131B508201F32DFF773F2E15C0280122E0420EAB
S1131B60511CF801A080B18036FE03C0692D70E0DD
S1131B7002C06FEF7FEFC5012DD14C01F32DF0684A
S1131B803F2E820133FC19C0822D90E088169906FD
S1131B90A0F4B60180E290E033D12A94F5CFF501A8
S1131BA037FC859137FE81915F01B60190E028D121
S1131BB021102A9421E0821A91088114910479F762
S1131BC0E1C0843611F0893639F5F80137FE07C0D3
S1131BD060817181828193810C5F1F4F08C0608195
S1131BE07181072E000C880B990B0E5F1F4FF32D8C
S1131BF0FF763F2E97FF09C090958095709561956B
S1131C007F4F8F4F9F4FF0683F2E2AE030E0A301B3
S1131C1033D1882E861844C0853731F4232D2F7E86
S1131C20B22E2AE030E025C0932D997FB92E8F364D
S1131C30C1F018F4883579F0AEC0803719F08837D0
S1131C4021F0A9C0E92FE061BE2EB4FE0DC0FB2D2A
S1131C50F460BF2E09C034FE0AC0292F2660B22EBC
S1131C6006C028E030E005C020E130E002C020E1F9
S1131C7032E0F801B7FE07C06081718182819381EF
S1131C800C5F1F4F06C06081718180E090E00E5FA1
S1131C901F4FA301F1D0882E8618FB2DFF773F2E0E
S1131CA036FE0DC0232D2E7FA22E891458F434FE47
S1131CB00BC032FC09C0832D8E7EA82E05C0B82C23
S1131CC0A32C03C0B82C01C0B92CA4FE0FC0FE0184
S1131CD0E80DF11D8081803321F49A2D997EA92E7F
S1131CE009C0A2FE06C0B394B39404C08A2D8678BA
S1131CF009F0B394A3FC10C0A0FE06C0B21480F493
S1131D00280C922C9B180DC0B21458F4B60180E232
S1131D1090E076D0B394F8CFB21418F42B1802C024
S1131D20982C212CA4FE0FC0B60180E390E068D06B
S1131D30A2FE16C0A1FC03C088E790E002C088E5BB
S1131D4090E0B6010CC08A2D867851F0A1FE02C045
S1131D508BE201C080E2A7FC8DE2B60190E050D096
S1131D60891430F4B60180E390E04AD09A94F8CF15
S1131D708A94F301E80DF11D8081B60190E040D012
S1131D808110F6CF222009F44ECEB60180E290E015
S1131D9037D02A94F7CFF6018681978102C08FEF5E
S1131DA09FEF2B960FB6F894DEBF0FBECDBFDF9129
S1131DB0CF911F910F91FF90EF90DF90CF90BF9044
S1131DC0AF909F908F907F906F905F904F903F90D7
S1131DD02F900895FC010590615070400110D8F7D0
S1131DE0809590958E0F9F1F0895FC01615070405F
S1131DF001900110D8F7809590958E0F9F1F08953C
S1131E000F931F93CF93DF93FB01238121FD03C025
S1131E108FEF9FEF2CC022FF16C04681578124818B
S1131E2035814217530744F4A081B1819D012F5F8E
S1131E303F4F318320838C93268137812F5F3F4F1F
S1131E403783268314C08B01EC01FB010084F185E8
S1131E50E02D0995892BE1F6D80116968D919C9178
S1131E601797019617969C938E931697CE01DF9140
S1131E70CF911F910F910895FA01AA27283051F1AB
S1131E80203181F1E8946F936E7F6E5F7F4F8F4FA7
S1131E909F4FAF4FB1E03ED0B4E03CD0670F781F06
S1131EA0891F9A1FA11D680F791F8A1F911DA11DEB
S1131EB06A0F711D811D911DA11D20D009F4689424
S1131EC03F912AE0269F11243019305D3193DEF6CC
S1131ED0CF010895462F4770405D4193B3E00FD082
S1131EE0C9F7F6CF462F4F70405D4A3318F0495D6D
S1131EF031FD4052419302D0A9F7EACFB4E0A69550
S1131F009795879577956795BA95C9F70097610571
S1131F10710508959B01AC010A2E069457954795C7
S1131F2037952795BA95C9F7620F731F841F951FBC
S10B1F30A01D0895F894FFCFF1
S1131F380101010100000000000000000000000091
S1131F480000000200000000E60B00000000FFFF94
S1131F58FFFF7F0282028502880282028B020D5BE8
S1131F6843616C635D205265736574000D5B436166
S1131F786C635D2042532E2043757272656E743A09
S1131F882025730A003D004572726F723A20506131
S1131F9872656E74686573657300204572726F723A
S1131FA83A20506172656E746865736573204D6973
S1131FB8736D617463680D00526573756C743A00CF
S1131FC84572726F723A2044697620627920300033
S1131FD8204572726F723A204469766973696F6E2C
S1131FE8204279205A65726F0D00256C6400416E99
S1131FF8733A20256C640D0A0043414C5F4D4149F6
S11320084E0043414C5F4D41494E207374617465E1
S11320183D25642069646C653D256C750A000D0ACC
S11320285B54696D656F757421204261636B20741C
S11320386F20436C6F636B204D6F64655D0D006B9F
S11320486579203A2025630A0053797374656D20F5
S113205852656164792E2E2E00444154453A20324B
S113206830253032642D253032642D253032640019
S113207854494D453A20253032643A253032643A81
S113208825303264005345543A20253032642D25D6
S11320983032642D253032640054494D453A2025A8
S11320A83032643A253032643A253032642000599B
S11320B859004D4D0044440048480053530051759D
S11320C865756520697320656D70747920212121F7
S11320D80071756575652066756C6C212121210078
S9030000FC
