S014000031312E4D595F4453313330322E737265631E
S11300004BC0000067C0000065C0000063C0000072
S113001061C000005FC000005DC000005BC0000064
S113002059C0000057C0000055C0000053C0000074
S113003051C000004FC000004DC000004BC0000084
S113004049C0000047C00000C2C1000043C0000016
S113005041C000003FC000003DC000003BC00000A4
S113006039C0000037C0000035C0000033C00000B4
S113007031C000002FC000002DC000002BC00000C4
S113008029C0000027C0000025C000006364696E19
S11300906F70737578585B0011241FBECFEFD0E1E9
S11300A0DEBFCDBF11E0A0E0B1E0E8EAF3E100E09B
S11300B00BBF02C007900D92A83CB107D9F724E00A
S11300C0A8ECB1E001C01D92A43FB207E1F775D1DD
S11300D00C94D20995CF9DEC899F912D112496956E
S11300E096959695392F330F232F220F220F230F26
S11300F0821B30E1939F800D11240895382F3F70A7
S1130100982F92959F70990F292F220F220F892FD4
S1130110820F830F0895E2E6F0E080818E7F808372
S113012085E08A95F1F7000080818160808385E015
S11301308A95F1F7000080818E7F808385E08A951F
S1130140F1F700000895EF92FF921F93CF93DF938E
S11301507C01E1E6F0E080818D7F8083C0E0D0E027
S113016010E010C0019B09C081E090E00C2E02C099
S1130170880F991F0A94E2F7182BC730D10509F0AC
S1130180CADF2196C830D1056CF3F7011083DF91E3
S1130190CF911F91FF90EF9008951F93CF93DF931A
S11301A0182FE1E6F0E0808182608083C0E0D0E037
S11301B017C0812F90E00C2E02C0959587950A9464
S11301C0E2F780FF06C0E2E6F0E08081826080838F
S11301D005C0E2E6F0E080818D7F80839CDF21967C
S11301E0C830D10534F3DF91CF911F9108950F9357
S11301F01F93CF93DF931F92CDB7DEB7198202E628
S113020010E0F801908194609083FAE0FA95F1F798
S113021000C08160C2DFCE01019695DFF8018081C4
S11302208B7F8083FAE0FA95F1F700C0898166DF5D
S11302300F90DF91CF911F910F910895CF93DF938A
S1130240EC0180E8D4DF888382E8D1DF898384E805
S1130250CEDF8A83DF91CF910895CF93DF93EC01B2
S11302608CE8C5DF8E8388E8C2DF8C8386E8BFDF35
S11302708B83DF91CF9108951F93CF93DF93162F34
S1130280C2E6D0E09881946098839AE19A95F1F758
S113029000C083DF812F1FDF80DF88818B7F88830D
S11302A0DF91CF911F910895CF93DF93EC0160E02C
S11302B08EE8E2DF688180E8DFDF698182E8DCDFE5
S11302C06A8184E8D9DF6B8186E8D6DF6C8188E8AF
S11302D0D3DF6D818AE8D0DF6E818CE8CDDFDF91DA
S11302E0CF910895E1E6F0E08081887F808380816A
S11302F0876080830895E2E6F0E08081887F8083D0
S11303008FE39FE10197F1F700C000000895FC011D
S11303109AE1968386E08483938385838FE0828346
S113032084E1818310820895CF93DF93CDB7DEB744
S113033029970FB6F894DEBF0FBECDBFCE0101964C
S1130340E6DFD0DFD8DFCE010196AEDF00E010E0BB
S1130350E4D08FE99FE00197F1F700C000000F5F40
S11303601F4F083E93E019079CF3CE01019666DF08
S1130370CE01019672DF2C819D818F811F922F9374
S11303801F929F931F928F938EE091E09F938F9380
S1130390C2D129819A818B811F922F931F929F939F
S11303A01F928F938DE191E09F938F93B4D10FB6F9
S11303B0F894DEBF0FBECDBFC9CFA0D080E091E0DE
S11303C09093F1048093F0047894AEDFFFCF1F92F2
S11303D00F920FB60F9211240BB60F922F933F93E7
S11303E04F935F936F937F938F939F93AF93BF9339
S11303F0EF93FF93CF93DF931F92CDB7DEB78CB10A
S1130400898389818A3019F089818D3061F58091E1
S1130410C8019091C901181619060CF059C0209111
S1130420CC013091CD018091C8019091C90140E582
S1130430429FF001439FF00D1124E253FE4FE80F59
S1130440F91F10821092C9011092C8018091CC0149
S11304509091CD0101966AE070E028D19093CD018E
S11304608093CC0135C08091CC019091CD0101964F
S11304702AE030E0B9011AD1FC018091CA019091BF
S1130480CB01B90113D1E817F90711F18091C80123
S11304909091C9018897E4F46091CC017091CD01E9
S11304A08091C8019091C9019C012F5F3F4F309307
S11304B0C9012093C801498150E5569F9001579F77
S11304C0300D112422533E4FF901E80FF91F4083E8
S11304D00F90DF91CF91FF91EF91BF91AF919F91D9
S11304E08F917F916F915F914F913F912F910F90D9
S11304F00BBE0F900FBE0F901F9018951092900096
S11305008FEC89B98BB182608BB98AB188698AB959
S113051008955D9BFECF8CB908951F93CF93DF930D
S1130520CDB7DEB72C970FB6F894DEBF0FBECDBFA4
S11305302091CA013091CB018091CC019091CD01E1
S11305402817390709F4A8C02091CA013091CB01BA
S113055010E5129FC001139F900D112482539E4FEA
S11305609F938F938CE291E09F938F93D4D02091AB
S1130570CA013091CB01129FC001139F900D112429
S113058046E050E06BE371E082539E4FB6D00F908B
S11305900F900F900F90892B09F072C02091CA011F
S11305A03091CB0140E5429FC001439F900D11243F
S11305B08C529E4F9E012F5F3F4F3F932F932E5F90
S11305C03F4F3F932F932E5F3F4F3F932F932E5FC9
S11305D03F4F3F932F932E5F3F4F3F932F932E5FB9
S11305E03F4F3F932F9322E431E03F932F939F9308
S11305F08F93D4D00FB6F894DEBF0FBECDBF06974D
S113060009F03BC060E08EE837DE00C000C00000A7
S11306106B858CE831DE698588E82EDE6F8186E89B
S11306202BDE6D8184E828DE6B8182E825DE69811A
S113063080E822DE8A818F9389818F938C818F93C6
S11306408B818F938E818F938D818F9388858F93E8
S11306508F818F938A858F9389858F938C858F93D0
S11306608B858F9385E591E09F938F9354D00FB63C
S1130670F894DEBF0FBECDBF03C089E991E05ED020
S11306808091CA019091CB0101966AE070E00ED08E
S11306909093CB018093CA012C960FB6F894DEBFD9
S11306A00FBECDBFDF91CF911F91089597FB072E09
S11306B016F4009406D077FD08D00BD007FC05D0C3
S11306C03EF4909581959F4F0895709561957F4F65
S11306D00895AA1BBB1B51E107C0AA1FBB1FA61785
S11306E0B70710F0A61BB70B881F991F5A95A9F7D7
S11306F080959095BC01CD010895FB01DC0141502A
S1130700504030F08D910190801919F40020B9F710
S1130710881B990B0895CF93DF93CDB7DEB7AE0155
S11307204B5F5F4FFA0161917191AF018091F004C9
S11307309091F10454D0DF91CF9108950F931F93BA
S1130740CF93DF93E091F004F091F104238121FF32
S11307501BC08C01D0E0C0E0F80181918F01609151
S1130760F0047091F104DB011896ED91FC91199756
S1130770882331F00995892B79F3DFEFCFEFECCFA4
S11307808AE00995892B19F08FEF9FEF02C08D2F16
S11307909C2FDF91CF911F910F910895CF93DF93F9
S11307A0CDB7DEB72E970FB6F894DEBF0FBECDBF20
S11307B085E08C838B899C899A838983AE01495E09
S11307C05F4F6D897E89CE010196B8D32E960FB600
S11307D0F894DEBF0FBECDBFDF91CF9108952F9265
S11307E03F924F925F926F927F928F929F92AF92BD
S11307F0BF92CF92DF92EF92FF920F931F93CF930A
S1130800DF93CDB7DEB72B970FB6F894DEBF0FBEDC
S1130810CDBF6C017B018A01FC01178216828381A2
S113082081FFBFC1CE0101963C01F6019381F7011E
S113083093FD859193FF81917F01882309F4ADC1D4
S1130840853239F493FD859193FF81917F0185323F
S113085021F4B60190E0F0D4E8CF912C212C312C76
S1130860FFE1F315D8F08B3279F038F4803279F067
S11308708332A1F4232D20611DC08D3261F08033B9
S113088069F4232D216016C0832D8260382EE32D58
S1130890E4603E2E2AC0F32DF8601DC037FC2DC045
S11308A020ED280F2A3040F08E32B9F436FC75C1A1
S11308B0232D2064322E19C036FE06C08AE0989E8D
S11308C0200D1124922E11C0EAE02E9E200D112439
S11308D0222EF32DF0623F2E08C08C3621F4832D96
S11308E08068382E02C0883641F4F70193FD859163
S11308F093FF81917F018111B3CF982F9F7D9554F0
S1130900933028F40C5F1F4F9FE399830DC0833607
S113091031F0833771F0833509F055C020C0F801F8
S1130920808189830E5F1F4F88248394912C530107
S113093012C02801F2E04F0E511CF801A080B180D2
S113094036FE03C0692D70E002C06FEF7FEFC50172
S11309502AD44C018201F32DFF773F2E15C02801C4
S113096022E0420E511CF801A080B18036FE03C083
S1130970692D70E002C06FEF7FEFC50109D44C010F
S1130980F32DF0683F2E820133FC19C0822D90E0D4
S113099088169906A0F4B60180E290E04DD42A941A
S11309A0F5CFF50137FC859137FE81915F01B601E2
S11309B090E042D421102A9421E0821A91088114F3
S11309C0910479F7E1C0843611F0893639F5F801DC
S11309D037FE07C060817181828193810C5F1F4F54
S11309E008C060817181072E000C880B990B0E5F83
S11309F01F4FF32DFF763F2E97FF09C090958095EA
S1130A00709561957F4F8F4F9F4FF0683F2E2AE07E
S1130A1030E0A30166D4882E861844C0853731F4AB
S1130A20232D2F7EB22E2AE030E025C0932D997F0E
S1130A30B92E8F36C1F018F4883579F0AEC08037FE
S1130A4019F0883721F0A9C0E92FE061BE2EB4FE69
S1130A500DC0FB2DF460BF2E09C034FE0AC0292F3F
S1130A602660B22E06C028E030E005C020E130E068
S1130A7002C020E132E0F801B7FE07C06081718155
S1130A80828193810C5F1F4F06C06081718180E079
S1130A9090E00E5F1F4FA30124D4882E8618FB2DEF
S1130AA0FF773F2E36FE0DC0232D2E7FA22E8914F4
S1130AB058F434FE0BC032FC09C0832D8E7EA82E60
S1130AC005C0B82CA32C03C0B82C01C0B92CA4FEBB
S1130AD00FC0FE01E80DF11D8081803321F49A2DB1
S1130AE0997EA92E09C0A2FE06C0B394B39404C093
S1130AF08A2D867809F0B394A3FC10C0A0FE06C02A
S1130B00B21480F4280C922C9B180DC0B21458F423
S1130B10B60180E290E090D3B394F8CFB21418F405
S1130B202B1802C0982C212CA4FE0FC0B60180E320
S1130B3090E082D3A2FE16C0A1FC03C088E790E037
S1130B4002C088E590E0B6010CC08A2D867851F089
S1130B50A1FE02C08BE201C080E2A7FC8DE2B601D7
S1130B6090E06AD3891430F4B60180E390E064D352
S1130B709A94F8CF8A94F301E80DF11D8081B601AF
S1130B8090E05AD38110F6CF222009F44ECEB6015C
S1130B9080E290E051D32A94F7CFF60186819781C1
S1130BA002C08FEF9FEF2B960FB6F894DEBF0FBEF7
S1130BB0CDBFDF91CF911F910F91FF90EF90DF9008
S1130BC0CF90BF90AF909F908F907F906F905F90E9
S1130BD04F903F902F90089520FD09C0FC0123FD04
S1130BE005C022FF02C0738362835183408308954A
S1130BF044FD17C046FD17C0AB01BC01DA01FB017F
S1130C00AA0FBB1FEE1FFF1F1094D1F74A0F5B1FE3
S1130C106E1F7F1FCB01BA01660F771F881F991FB4
S1130C2009C033E001C034E0660F771F881F991FA5
S1130C303150D1F7620F711D811D911D08950F93DD
S1130C401F93CF93DF938C01C801B8D2EC0197FDB9
S1130C5006C08BD2892BC1F7B801CE0129D3CE01AE
S1130C60DF91CF911F910F9108958F929F92AF9230
S1130C70BF92EF92FF920F931F93CF93DF938C0158
S1130C80D62F7A01B22E9AD29C0133272B3231050A
S1130C9031F02D32310559F48B2D8068B82ED150A6
S1130CA011F480E061C0C80189D297FDFACFCB2D41
S1130CB0CD7F2B2D2073F9F48033E9F4AA24AA9470
S1130CC0AD0E09F43EC0C80179D297FD3AC09C012B
S1130CD02F7D33272835310541F4C264D25089F180
S1130CE0C8016CD297FF07C02CC0B6FE02C0C26018
S1130CF001C0C261DA2D812C912C540120ED280F02
S1130D00283078F0C4FF03C0B801D2D217C02A300B
S1130D1040F0C6FFF9CF2F7D3FEE320F3630A0F7FB
S1130D2027504C2FC501B40163DF4B015C01C26045
S1130D30D15051F0C80142D297FFE0CFC1FD04C0A9
S1130D40B0CF812C912C5401C7FF08C0B094A0945B
S1130D5090948094811C911CA11CB11C2C2FB50172
S1130D60A401C70139DF81E0DF91CF911F910F9179
S1130D70FF90EF90BF90AF909F908F9008955F92F7
S1130D806F927F928F929F92AF92BF92CF92DF9297
S1130D90EF92FF920F931F93CF93DF93CDB7DEB7FC
S1130DA0A0970FB6F894DEBF0FBECDBF5C01962EA0
S1130DB07A01F9018E010F5F1F4F680180E2D801AB
S1130DC01D928A95E9F7D50113968C9080E090E006
S1130DD0612C712C30E061E070E083FC259183FE8E
S1130DE021918F01522E211103C080E090E090C028
S1130DF02E3511F4009751F1432F50E0481759074D
S1130E003CF42D3559F12D3219F4772009F103C042
S1130E10772009F468C0452D469546954695D60138
S1130E20A40FB11D452D47708B0102C0000F111F87
S1130E304A95E2F7A8015C91452B4C93651459F04F
S1130E40561410F45394E7CF5A94E5CF31E004C01C
S1130E507724739401C0712C0196BFCF772019F0C9
S1130E608E8180628E83311103C08824839417C0DD
S1130E70F6019E012F5D3F4F8081809581932E174F
S1130E803F07D1F7F2CFE114F10429F0D7018C9395
S1130E90F70131967F019A94812C9920E9F0C501DC
S1130EA08DD197FD17C0FC01FF2723E0F595E79549
S1130EB02A95E1F7EC0DFD1D208130E0AC0147706F
S1130EC0552702C0359527954A95E2F720FDDBCFDB
S1130ED0B501EED1811089CFE114F10411F0D701ED
S1130EE01C92C80115C0422F469546954695D601D9
S1130EF0A40FB11D422F47708B0102C0000F111FB8
S1130F004A95E2F7A8015C91452B4C93622EA4CF3D
S1130F10A0960FB6F894DEBF0FBECDBFDF91CF9180
S1130F201F910F91FF90EF90DF90CF90BF90AF9003
S1130F309F908F907F906F905F9008955F926F92D3
S1130F407F928F929F92AF92BF92CF92DF92EF9255
S1130F50FF920F931F93CF93DF936C01EB015A0120
S1130F60FC0117821682512CF601E380FE01E3FC9A
S1130F708591E3FE8191182FEF01882309F4E0C0E5
S1130F8090E0F3D0892B19F0C60159DEEDCF15326C
S1130F9041F4FE01E3FC1591E3FE1191EF011532DA
S1130FA071F4C6010BD197FDC9C0412F50E09C01DB
S1130FB0332724173507C1F2B6017AD1C1C01A32DA
S1130FC039F4E3FC1591E3FE1191EF0101E001C056
S1130FD000E0F12C20ED210F2A3078F402606F2D0F
S1130FE070E080E090E040E203DEF62EFE01E3FCD8
S1130FF01591E3FE1191EF01EDCF01FF03C0F11054
S113100003C09EC0FF24FA94183619F01C3651F020
S113101010C0FE01E3FC1591E3FE1191EF011836B7
S113102041F408600460FE01E3FC1591E3FE1191B4
S1131030EF01112309F484C0612F70E08CE890E083
S11310409CD0892B09F47CC000FD07C0F501808089
S11310509180C50102965C0102C0812C912C1E3640
S113106049F4F6014681578160E070E0202FC40105
S1131070B3DD7ACF1336A1F401FD02C0FF24F3944B
S1131080C6019CD097FD5AC08114910429F0F40143
S11310908083C40101964C01FA94F110F1CF4AC047
S11310A01B3551F49E01A4016F2DC60168DEEC01CD
S11310B0892B09F03FC039C0C601C1DD97FD3EC090
S11310C01F3649F128F4143621F1193639F125C0B7
S11310D0133771F01537E9F020C08114910429F019
S11310E0F4016082C40101964C01FA94FF2059F086
S11310F0C60164D03C0197FD06C037D0892B69F343
S1131100B601C301D5D081149104A1F0F401108279
S113111011C0006203C0006101C00064202FA4015B
S11311206F2DC601A2DD811105C0F6018381807394
S113113029F406C000FD18CF539416CF552019F09A
S1131140852D90E002C08FEF9FEFDF91CF911F912B
S11311500F91FF90EF90DF90CF90BF90AF909F9052
S11311608F907F906F905F900895911118C1803295
S113117019F089508550D0F70895FC0105900616A2
S113118021F00020D9F7C00108953197CF010895C7
S1131190FC010590615070400110D8F7809590953E
S11311A08E0F9F1F0895FC01615070400190011043
S11311B0D8F7809590958E0F9F1F0895CF93DF9356
S11311C0EC012B8120FF33C026FF0AC02F7B2B8329
S11311D08E819F8101969F838E838A8190E029C0AE
S11311E022FF0FC0E881F9818081082E000C990B41
S11311F0009719F420622B831AC03196F983E8838F
S11312000EC0EA85FB85099597FF09C02B810196DD
S113121011F080E201C080E1822B8B8308C02E8113
S11312203F812F5F3F4F3F832E83992702C08FEF6B
S11312309FEFDF91CF9108950F931F93CF93DF9387
S1131240FB01238121FD03C08FEF9FEF2CC022FF00
S113125016C046815781248135814217530744F4CF
S1131260A081B1819D012F5F3F4F318320838C93F7
S1131270268137812F5F3F4F3783268314C08B012C
S1131280EC01FB010084F185E02D0995892BE1F641
S1131290D80116968D919C911797019617969C9359
S11312A08E931697CE01DF91CF911F910F910895E0
S11312B0FB01238120FF12C026FD10C08F3F3FEFAA
S11312C0930761F082832F7D2064238326813781F5
S11312D02150310937832683992708958FEF9FEF93
S11312E00895FA01AA27283051F1203181F1E894B8
S11312F06F936E7F6E5F7F4F8F4F9F4FAF4FB1E005
S11313003ED0B4E03CD0670F781F891F9A1FA11DFF
S1131310680F791F8A1F911DA11D6A0F711D811D00
S1131320911DA11D20D009F468943F912AE0269FC5
S113133011243019305D3193DEF6CF010895462F24
S11313404770405D4193B3E00FD0C9F7F6CF462F05
S11313504F70405D4A3318F0495D31FD405241936E
S113136002D0A9F7EACFB4E0A6959795879577952B
S11313706795BA95C9F700976105710508959B01B2
S1131380AC010A2E06945795479537952795BA953B
S1131390C9F7620F731F841F951FA01D0895992715
S10B13A088270895F894FFCF9B
S11313A8000000020000000089020000000044411F
S11313B854452025642D25642D25640A0054494D7F
S11313C8452025642D25642D25640A00496E707511
S11313D87420436D643A2025730A0073657472742B
S11313E8630025326425326425326425326425324B
S11313F864253264000A5B5254435D20EC8B9CEAFA
S1131408B08420EB8F99EAB8B0ED999420EC84B1BC
S1131418EAB3B521202D3E203230253032642D2503
S11314283032642D2530326420253032643A253038
S113143832643A253032640A000A5B5254435D2010
S1131448ED8FACEBA7B720EC9790EB9FAC2120284D
S113145865783A207365747274633236303632397B
S10B1468313132323030290029
S9030000FC
