S014000030372E204155544F5F4341522E73726563ED
S1130000DAC00000F6C00000F4C00000F2C0000036
S1130010F0C0000083C10000D2C1000020C2000073
S1130020E8C00000E6C00000E4C00000E2C0000038
S1130030E0C00000DEC00000DCC00000DAC0000048
S11300408FC60000D6C00000D0C70000D2C0000098
S1130050D0C00000CEC00000CCC00000CAC0000068
S1130060C8C00000C6C00000C4C00000C2C0000078
S1130070C0C00000BEC000000C944909BAC0000012
S1130080B8C00000B6C00000B4C0000023014001A5
S1130090400140011901400140014001400140017B
S11300A02D01400140014001400140013701400160
S11300B04001400140014001400140014001400134
S11300C04001400140014001400140012301400141
S11300D0400140011901400140014001400140013B
S11300E02D01400140014001400140013701340429
S11300F03204320432042A04320432043204320454
S113010032042C04320432043204320432042E0445
S1130110300432043204320432043204320432042D
S11301203204320432043204320432043204340419
S11301303204320432042A04320432043204320413
S113014032042C04320432043204320432042E0405
S113015030047F06A306A306A3067506A306A3061A
S1130160A306A306A3068906A306A306A306A3065D
S1130170A30693069D06A306A306A306A306A30649
S1130180A306A306A306A306A306A306A306A30623
S1130190A3067F06A306A306A3067506A306A30665
S11301A0A306A306A3068906A306A306A306A3061D
S11301B0A30693069D0611241FBECFEFD0E1DEBF38
S11301C0CDBF11E0A0E0B1E0E6EAFCE100E00BBF46
S11301D002C007900D92AA35B107D9F724E0AAE529
S11301E0B1E001C01D92A83BB207E1F7F5D50C942C
S11301F0510E06CF282F80931D0134E6369FC0018F
S1130200379F900D11246FEF73E00E94000B6093F1
S11302108A01809106012817A9F1822F90E0FC0140
S1130220E254F109E133F10558F5EA5BFF4F0C9410
S1130230490B80917C0190917D01019690937D0101
S113024080937C011DC080917A0190917B0101967D
S113025090937B0180937A0113C0809178019091EF
S113026079010196909379018093780109C0809176
S113027076019091770101969093770180937601AE
S113028020930601089592B39F70282F207F922B0C
S113029092BB98B3907F8F70892B88BB089510927E
S11302A077011092760110927901109278011092E0
S11302B07B0110927A0110927D0110927C0183E5FA
S11302C0809306010895E4E6F0E080818E7F8083C8
S11302D0808180618083E5E6F0E080818F7E808389
S11302E008954BB321E030E0B90102C0660F771FD7
S11302F08A95E2F7CB01962F909549234BBB7AE080
S11303007A95F1F700C02BB3822B8BBB85E38A95DA
S1130310F1F700008BB398239BBB08951F920F92B3
S11303200FB60F9211240BB60F922F933F934F9356
S11303305F936F937F938F939F93AF93BF93EF9349
S1130340FF930C9B05C0109289001092880024C072
S1130350609188007091890080E090E00E940F0A0B
S113036020E034E244E759E40E949D0A20E030E0B2
S113037040E854E40E949D0A20E034E244E75BE450
S1130380B5D720E030E048E652E4B0D70E94DE0959
S11303907093050160930401FF91EF91BF91AF91B8
S11303A09F918F917F916F915F914F913F912F9189
S11303B00F900BBE0F900FBE0F901F9018951F92B9
S11303C00F920FB60F9211240BB60F922F933F93F7
S11303D04F935F936F937F938F939F93AF93BF9349
S11303E0EF93FF930D9B05C0109289001092880033
S11303F023C0609188007091890080E090E00E94A1
S11304000F0A20E034E244E759E40E949D0A20E008
S113041030E040E854E40E949D0A20E034E244E7DE
S11304205BE464D720E030E048E652E45FD7C6D707
S11304307093030160930201FF91EF91BF91AF911B
S11304409F918F917F916F915F914F913F912F91E8
S11304500F900BBE0F900FBE0F901F9018951F9218
S11304600F920FB60F9211240BB60F922F933F9356
S11304704F935F936F937F938F939F93AF93BF93A8
S1130480EF93FF930E9B05C0109289001092880091
S113049022C0609188007091890080E090E0BFD70D
S11304A020E034E244E759E40E949D0A20E030E071
S11304B040E854E40E949D0A20E034E244E75BE40F
S11304C015D720E030E048E652E410D777D7709390
S11304D0010160930001FF91EF91BF91AF919F9152
S11304E08F917F916F915F914F913F912F910F90D9
S11304F00BBE0F900FBE0F901F9018958AB38760A4
S11305008ABB8BB3887F8BBB82B18F7882B98AB761
S113051081608ABF8AB784608ABF8AB780618ABFD4
S1130520EAE8F0E0108280818560808389B7806783
S113053089BF08958091860190918701A0918801D7
S1130540B091890140916D0150916E0160916F01EC
S113055070917001841B950BA60BB70B8436910523
S1130560A105B10540F18091860190918701A09188
S11305708801B091890180936D0190936E01A093DD
S11305806F01B093700180917101813051F018F0C6
S1130590823069F0089580E0A4DE81E080937101E7
S11305A0089581E09EDE82E080937101089582E0E7
S11305B098DE10927101089581B3806F81BB82B37C
S11305C0806F82BB87B38F6087BB88B38F6088BB23
S11305D0E1E6F0E08081806F8083E2E6F0E08081F4
S11305E08F70808308958FEF84BB85BB8AB3806F3F
S11305F08ABB8BB38F708BBB08950F931F9380912D
S11306006300817090916C01891791F080936C0163
S11306104091860150918701609188017091890110
S1130620409368015093690160936A0170936B0170
S113063040918601509187016091880170918901F0
S1130640009168011091690120916A0130916B0158
S1130650401B510B620B730B44315105610571054D
S113066058F090916701891751F0809367018111C7
S113067009C081E090E008C080E090E005C080E01F
S113068090E002C080E090E01F910F910895892BC3
S113069031F0E5E6F0E08081806180830895E5E64D
S11306A0F0E080818F7E80830895CF92DF92EF9275
S11306B0FF921F93CF93DF9300D000D0CDB7DEB766
S11306C060362AEE72078105910508F042C028EED3
S11306D033E040E050E0BBD76B017C01CA01B901B3
S11306E02CE330E040E050E0B2D7162FC701B6014A
S11306F02AE030E040E050E0AAD78DEC189F912D1D
S113070011249695969596959983990F392F330FC1
S1130710330F930F191B165F1A83289F812D112401
S11307208695869586958B83880F982F990F990FB8
S1130730890F281B2C8380916601E1E0F0E0EC0F27
S1130740FD1FE80FF11DE081F0E0E25DFE4F8081C6
S113075036C020E63AEE40E050E079D7122F28EE7A
S113076033E040E050E073D78DEC189F912D1124B5
S11307709695969596959983990F392F330F330F44
S1130780930F191B165F1A83289F812D11248695B8
S1130790869586958B83880F982F990F990F890FCB
S11307A0281B2C8380916601E1E0F0E0EC0FFD1F33
S11307B0E80FF11DE081F0E0E25DFE4F8081E2E6AA
S11307C0F0E090819F7090835EDD809166018130BE
S11307D061F028F0823079F0833099F017C0E2E6B6
S11307E0F0E080818068808311C0E2E6F0E08081DF
S11307F0806480830BC0E2E6F0E0808180628083C5
S113080005C0E2E6F0E0808180618083809166012A
S113081090E0019683709078992324F401978C6F6B
S11308209F6F0196809366010F900F900F900F9029
S1130830DF91CF911F91FF90EF90DF90CF900895BB
S113084090E0FC01E254F109E233F10558F4E9586F
S1130850FF4F1FC72BE009C02DE007C02EE005C0E5
S11308602FE003C02FE001C02CE0EDEC6E9F812D42
S113087011248695869586958E9FE12D1124E69503
S1130880E695E695EE0F9E2F990F990FE90F982F95
S11308909E1BE92F880F982F990F990F890F962F78
S11308A0981B80916501813031F038F0823059F025
S11308B0833071F013C09FEB12C0E22FF0E0E25ED0
S11308C0FE4F90810CC0F0E0E25EFE4F908107C0C5
S11308D0E92FF0E0E25EFE4F908101C09FEF8BB301
S11308E08F708BBB95BB80916501813051F028F0EE
S11308F0823059F0833069F00FC08BB380618BBBB9
S11309000BC08BB380628BBB07C08BB380648BBB83
S113091003C08BB380688BBB8091650190E0019626
S113092083709078992324F401978C6F9F6F0196BC
S11309308093650108951F93CF93DF93809186017F
S113094090918701A0918801B09189014091610142
S1130950509162016091630170916401841B950B55
S1130960A60BB70B883E9340A105B105F0F080912A
S1130970860190918701A0918801B09189018093AB
S1130980610190936201A0936301B093640180912B
S1130990600190E0019683709078992324F4019784
S11309A08C6F9F6F0196809360018091600181300C
S11309B051F018F0823069F012C0C0917C01D091DE
S11309C07D011BE011C0C0917A01D0917B011CE034
S11309D00BC0C0917801D09179011DE005C0C09190
S11309E07601D09177011EE0C436D10510F0C3E63C
S11309F0D0E09E01ADECBCEC55D6FC01F695E79534
S1130A00F695E795F695E7959F014CD6AC0156957A
S1130A1047955695479556954795CA01880F991F4E
S1130A20440F551F440F551F440F551F480F591F9E
S1130A30CF01841B950BAC019E01CF01880F991F38
S1130A40EE0FFF1FEE0FFF1FEE0FFF1FE80FF91F42
S1130A502E1B3F0B80915F01813031F038F08230E2
S1130A6059F0833079F014C09FEB13C0E12FF0E00C
S1130A70E25EFE4F90810DC05527FA01E25EFE4F03
S1130A80908107C03327F901E25EFE4F908101C0D7
S1130A909FEF8BB38F708BBB95BB80915F018130CF
S1130AA051F028F0823059F0833069F00FC08BB3D5
S1130AB080618BBB0BC08BB380628BBB07C08BB3D5
S1130AC080648BBB03C08BB380688BBB80915F0158
S1130AD090E0019683709078992324F401978C6FA9
S1130AE09F6F019680935F01DF91CF911F910895CD
S1130AF08F929F92AF92BF92CF92DF92EF92FF922A
S1130B00209104013091050180910201909103012B
S1130B1040910001509101018B30910544F02B303C
S1130B2031053CF04B30510534F461E005C061E01F
S1130B3003C061E001C060E06623C1F060915E0122
S1130B40611116C061E060935E01C0908601D0908F
S1130B508701E0908801F0908901C0925A01D092F7
S1130B605B01E0925C01F0925D0102C010925E01B3
S1130B7060915E01662309F43FC0C0908601D09065
S1130B808701E0908801F090890180905A0190904B
S1130B905B01A0905C01B0905D01C818D908EA0817
S1130BA0FB0860EDC61667E0D606E104F10420F107
S1130BB088E592E0E3D168E572E082E61BDB809190
S1130BC0860190918701A0918801B091890140919B
S1130BD05A0150915B0160915C0170915D01841B2D
S1130BE0950BA60BB70B883B9B40A105B10508F4F8
S1130BF05FC010925E015CC02D3031055CF44D3055
S1130C00510544F488E592E0B9D168E572E082E6E2
S1130C10F1DA4EC08B3091055CF42B30310544F48D
S1130C2088E592E0C7D168E572E08CE4E3DA40C07D
S1130C308B3091055CF44B30510544F488E592E027
S1130C40ABD168E572E082E7D5DA32C00B979CF449
S1130C504217530744F488E592E09ED168E572E0B8
S1130C6082E7C8DA25C088E592E0A4D168E572E09D
S1130C708CE4C0DA1DC02B30310544F488E592E0E1
S1130C8099D168E572E08CE4B5DA12C04B305105B5
S1130C9044F488E592E080D168E572E082E7AADA5C
S1130CA007C080E991E05CD160E971E086E6A2DAF0
S1130CB0FF90EF90DF90CF90BF90AF909F908F9078
S1130CC0089581E090E090937F0180937E010895E0
S1130CD0E091B1048E2F90E0FC01E254F109E2337B
S1130CE0F10588F5E755FF4FD4C484EF91E038D17E
S1130CF086E480931D0180E380938A0124C084EFFD
S1130D0091E03CD182E680931D0180E380938A01C7
S1130D101AC08CEB92E040D182E780931D0184E4F9
S1130D2080938A0110C08CEB92E044D18CE48093D0
S1130D301D0184E480938A0106C04AD183E580932F
S1130D401D0110928A011092B1040895D1CE089524
S1130D50F1DB81E090E090937F0180937E01089520
S1130D601F920F920FB60F9211248F939F93AF93FC
S1130D70BF9386E082BF8091860190918701A09104
S1130D808801B09189010196A11DB11D809386014E
S1130D9090938701A0938801B09389018091840185
S1130DA09091850101969093850180938401BF9170
S1130DB0AF919F918F910F900FBE0F901F90189538
S1130DC086E082BF83B7887F83BF83B7846083BF95
S1130DD087B7816087BF0895F3DFA4D143D2A9D038
S1130DE094D071DAE9DB8ADBFEDB8FE091E090934B
S1130DF0B5048093B404789400DC892B09F449C0C9
S1130E0081E090E020917E0130917F01232B11F04D
S1130E1080E090E090937F0180937E0138DC8091A4
S1130E207E0190917F01019791F4809186019091C8
S1130E308701A0918801B0918901809380019093EA
S1130E408101A0938201B093830129DA22C0C0D02A
S1130E5083E580931D0110928A018091860190910F
S1130E608701A0918801B09189014091800150913E
S1130E7081016091820170918301841B950BA60B03
S1130E80B70B8093720190937301A0937401B09394
S1130E90750180917E0190917F010197E9F4809121
S1130EA0860190918701A0918801B09189010091F8
S1130EB08001109181012091820130918301BC0154
S1130EC0CD01601B710B820B930BEFDB60918A01E8
S1130ED080911D01B5DC0AC06091720170917301AB
S1130EE08091740190917501E0DB25DD23DB29D12C
S1130EF0E0917E01F0917F01EE0FFF1FE95FFE4F4D
S1130F000190F081E02D099577CF8EB583608EBD79
S1130F108FB582608FBD8EB588618EBD8FB58068B8
S1130F208FBD8FB580628FBD8FEF93E097BD86BD77
S1130F30089587B38F7987BBE1E6F0E08081807FF5
S1130F40808387B3806687BB80818F608083E2E67D
S1130F50F0E08081807F8083808185608083089534
S1130F609C01E2E6F0E09081907F9083908195600F
S1130F70908339BD28BD3BBD2ABD08959C01E2E69E
S1130F80F0E09081907F908390819A60908339BD46
S1130F9028BD3BBD2ABD08959C01E2E6F0E09081A6
S1130FA0907F90839081996090831BBC1ABC39BD5B
S1130FB028BD08959C01E2E6F0E09081907F908343
S1130FC09081966090833BBD2ABD19BC18BC0895DE
S1130FD0E2E6F0E08081807F808380818F6080837F
S1130FE01BBC1ABC19BC18BC08951F920F920FB6F3
S1130FF00F9211240BB60F922F933F934F935F934D
S11310006F937F938F939F93AF93BF93EF93FF93CC
S1131010CF93DF931F92CDB7DEB78CB189838981DB
S11310208A3019F089818D30C1F580918F019091BA
S1131030900101962AE030E0B901F6D2FC018091DA
S11310408D0190918E01B901EFD2E817F90709F4E7
S113105053C020918F013091900180918B01909128
S11310608C0140E5429FF001439FF00D1124EF569F
S1131070FE4FE80FF91F108210928C0110928B0121
S113108080918F019091900101966AE070E0CCD23A
S11310909093900180938F012FC080918F01909144
S11310A0900101962AE030E0B901BED2FC018091A2
S11310B08D0190918E01B901B7D2E817F907E1F0DB
S11310C060918F017091900180918B0190918C01BE
S11310D09C012F5F3F4F30938C0120938B014981FA
S11310E050E5569F9001579F300D11242F563E4FC7
S11310F0F901E80FF91F40830F90DF91CF91FF9121
S1131100EF91BF91AF919F918F917F916F915F917B
S11311104F913F912F910F900BBE0F900FBE0F90E8
S11311201F901895109290008FEC89B98BB1826052
S11311308BB98AB188698AB908955D9BFECF8CB951
S11311400895CF9320918D0130918E0180918F016C
S1131150909190012817390709F482C020918D01DC
S113116030918E01C0E5C29FC001C39F900D112430
S11311708F569E4F9F938F9382E491E09F938F931A
S1131180A0D280918D0190918E01C89FF001C99FDA
S1131190F00D1124EF56FE4F80810F900F900F90A9
S11311A00F90863621F484EF91E0DADE4DC0809111
S11311B08D0190918E0120E5289FF001299FF00D6B
S11311C01124EF56FE4F8081823621F484EF91E0A2
S11311D0D5DE3AC080918D0190918E0120E5289F43
S11311E0F001299FF00D1124EF56FE4F80818C36BB
S11311F021F48CEB92E0D0DE27C080918D01909198
S11312008E0120E5289FF001299FF00D1124EF564F
S1131210FE4F8081823721F48CEB92E0CBDE14C048
S113122080918D0190918E0120E5289FF001299FE6
S1131230F00D1124EF56FE4F8081833711F4C8DE80
S113124003C08CE491E050D280918D0190918E0185
S113125001966AE070E0E8D190938E0180938D014D
S1131260CF910895109298008FEC80939900EBE948
S1131270F0E0808182608083EAE9F0E0808188691F
S11312808083089590919B0095FFFCCF80939C00F0
S113129008951F920F920FB60F9211240BB60F925E
S11312A02F933F934F935F936F937F938F939F936A
S11312B0AF93BF93EF93FF9380919C008093B1040D
S11312C08091B104DFDFFF91EF91BF91AF919F91C6
S11312D08F917F916F915F914F913F912F910F90DB
S11312E00BBE0F900FBE0F901F9018950CD0EBC043
S11312F0E3D040F0DAD030F021F45F3F19F0CCC0F5
S1131300511115C1CFC0F0D098F39923C9F35523D7
S1131310B1F3951B550BBB27AA27621773078407E4
S113132038F09F5F5F4F220F331F441FAA1FA9F39A
S113133033D00E2E3AF0E0E830D091505040E6958C
S1131340001CCAF729D0FE2F27D0660F771F881FED
S1131350BB1F261737074807AB07B0E809F0BB0BDC
S1131360802DBF01FF2793585F4F2AF09E3F510500
S113137068F092C0DCC05F3FECF3983EDCF38695E6
S113138077956795B795F7959F5FC9F7880F911D76
S11313909695879597F90895E1E0660F771F881F62
S11313A0BB1F621773078407BA0720F0621B730B15
S11313B0840BBA0BEE1F88F7E095089504D0689467
S11313C0B111B5C0089598D088F09F5790F0B92F07
S11313D09927B751A0F0D1F0660F771F881F991F86
S11313E01AF0BA95C9F712C0B13081F09FD0B1E0BC
S11313F008959CC0672F782F8827B85F39F0B93FCC
S1131400CCF3869577956795B395D9F73EF4909587
S11314108095709561957F4F8F4F9F4F0895E89405
S113142009C097FB3EF490958095709561957F4F28
S11314308F4F9F4F9923A9F0F92F96E9BB279395D6
S1131440F695879577956795B795F111F8CFFAF4E6
S1131450BB0F11F460FF1BC06F5F7F4F8F4F9F4F17
S113146016C0882311F096E911C0772321F09EE875
S1131470872F762F05C0662371F096E8862F70E0DB
S113148060E02AF09A95660F771F881FDAF7880FB5
S11314909695879597F9089597F99F6780E870E086
S11314A060E008959FEF80EC089500240A941616D6
S11314B0170618060906089500240A94121613063E
S11314C0140605060895092E0394000C11F48823CC
S11314D052F0BB0F40F4BF2B11F460FF04C06F5FE8
S11314E07F4F8F4F9F4F089557FD9058440F551FBE
S11314F059F05F3F71F04795880F97FB991F61F092
S11315009F3F79F087950895121613061406551F08
S1131510F2CF4695F1DF08C0161617061806991F74
S1131520F1CF86957105610508940895E894BB2769
S113153066277727CB0197F908950BD0C4CFB5DF81
S113154028F0BADF18F0952309F0A6CFABCF112409
S1131550EECFCADFA0F3959FD1F3950F50E0551F4E
S1131560629FF001729FBB27F00DB11D639FAA27F4
S1131570F00DB11DAA1F649F6627B00DA11D661F43
S1131580829F2227B00DA11D621F739FB00DA11D64
S1131590621F839FA00D611D221F749F3327A00D1E
S11315A0611D231F849F600D211D822F762F6A2FBA
S11315B011249F5750408AF0E1F088234AF0EE0F3F
S11315C0FF1FBB1F661F771F881F91505040A9F74C
S11315D09E3F510570F060CFAACF5F3FECF3983E79
S11315E0DCF3869577956795B795F795E7959F5FB3
S11315F0C1F7FE2B880F911D9695879597F908954D
S1131600AA1BBB1B51E107C0AA1FBB1FA617B70724
S113161010F0A61BB70B881F991F5A95A9F7809540
S11316209095BC01CD01089597FB072E16F4009404
S113163006D077FD08D0E4DF07FC05D03EF4909592
S113164081959F4F0895709561957F4F0895A1E20C
S11316501A2EAA1BBB1BFD010DC0AA1FBB1FEE1F28
S1131660FF1FA217B307E407F50720F0A21BB30B73
S1131670E40BF50B661F771F881F991F1A9469F7EF
S113168060957095809590959B01AC01BD01CF014B
S11316900895EE0FFF1F0024001C0BBE0790F69167
S11316A0E02D0994A29FB001B39FC001A39F700DC8
S11316B0811D1124911DB29F700D811D1124911D56
S11316C00895CF93DF93CDB7DEB7AE014B5F5F4F85
S11316D0FA0161917191AF018091B4049091B504C4
S11316E033D0DF91CF9108950F931F93CF93DF935E
S11316F0E091B404F091B504238121FF1BC08C0157
S1131700D0E0C0E0F80181918F016091B404709140
S1131710B504DB011896ED91FC911997882331F0FB
S11317200995892B79F3DFEFCFEFECCF8AE00995A8
S1131730892B19F08FEF9FEF02C08D2F9C2FDF9123
S1131740CF911F910F9108952F923F924F925F92E4
S11317506F927F928F929F92AF92BF92CF92DF92BD
S1131760EF92FF920F931F93CF93DF93CDB7DEB722
S11317702B970FB6F894DEBF0FBECDBF6C017B0173
S11317808A01FC0117821682838181FFBFC1CE01C9
S113179001963C01F6019381F70193FD859193FF36
S11317A081917F01882309F4ADC1853239F493FD19
S11317B0859193FF81917F01853221F4B60190E0F8
S11317C0D6D1E8CF912C212C312CFFE1F315D8F0A0
S11317D08B3279F038F4803279F08332A1F4232DFE
S11317E020611DC08D3261F0803369F4232D2160A6
S11317F016C0832D8260382EE32DE4603E2E2AC06D
S1131800F32DF8601DC037FC2DC020ED280F2A30C1
S113181040F08E32B9F436FC75C1232D2064322E8B
S113182019C036FE06C08AE0989E200D1124922E1F
S113183011C0EAE02E9E200D1124222EF32DF06219
S11318403F2E08C08C3621F4832D8068382E02C0C8
S1131850883641F4F70193FD859193FF81917F01CF
S11318608111B3CF982F9F7D9554933028F40C5F4A
S11318701F4F9FE399830DC0833631F0833771F096
S1131880833509F055C020C0F801808189830E5F3B
S11318901F4F88248394912C530112C02801F2E035
S11318A04F0E511CF801A080B18036FE03C0692D93
S11318B070E002C06FEF7FEFC5014ED14C01820191
S11318C0F32DFF773F2E15C0280122E0420E511C54
S11318D0F801A080B18036FE03C0692D70E002C01B
S11318E06FEF7FEFC5012DD14C01F32DF0683F2E32
S11318F0820133FC19C0822D90E088169906A0F469
S1131900B60180E290E033D12A94F5CFF50137FC9B
S1131910859137FE81915F01B60190E028D12110B5
S11319202A9421E0821A91088114910479F7E1C084
S1131930843611F0893639F5F80137FE07C0608125
S11319407181828193810C5F1F4F08C06081718116
S1131950072E000C880B990B0E5F1F4FF32DFF769B
S11319603F2E97FF09C090958095709561957F4FA4
S11319708F4F9F4FF0683F2E2AE030E0A30133D110
S1131980882E861844C0853731F4232D2F7EB22E3D
S11319902AE030E025C0932D997FB92E8F36C1F00F
S11319A018F4883579F0AEC0803719F0883721F003
S11319B0A9C0E92FE061BE2EB4FE0DC0FB2DF4607A
S11319C0BF2E09C034FE0AC0292F2660B22E06C0DD
S11319D028E030E005C020E130E002C020E132E040
S11319E0F801B7FE07C060817181828193810C5F29
S11319F01F4F06C06081718180E090E00E5F1F4F31
S1131A00A301F1D0882E8618FB2DFF773F2E36FEDA
S1131A100DC0232D2E7FA22E891458F434FE0BC042
S1131A2032FC09C0832D8E7EA82E05C0B82CA32CB1
S1131A3003C0B82C01C0B92CA4FE0FC0FE01E80DF0
S1131A40F11D8081803321F49A2D997EA92E09C03D
S1131A50A2FE06C0B394B39404C08A2D867809F01C
S1131A60B394A3FC10C0A0FE06C0B21480F4280CEA
S1131A70922C9B180DC0B21458F4B60180E290E089
S1131A8076D0B394F8CFB21418F42B1802C0982C63
S1131A90212CA4FE0FC0B60180E390E068D0A2FE22
S1131AA016C0A1FC03C088E790E002C088E590E07E
S1131AB0B6010CC08A2D867851F0A1FE02C08BE2DB
S1131AC001C080E2A7FC8DE2B60190E050D08914F9
S1131AD030F4B60180E390E04AD09A94F8CF8A9427
S1131AE0F301E80DF11D8081B60190E040D0811032
S1131AF0F6CF222009F44ECEB60180E290E037D032
S1131B002A94F7CFF6018681978102C08FEF9FEF69
S1131B102B960FB6F894DEBF0FBECDBFDF91CF91E9
S1131B201F910F91FF90EF90DF90CF90BF90AF90F7
S1131B309F908F907F906F905F904F903F902F90E9
S1131B400895FC010590615070400110D8F780950C
S1131B5090958E0F9F1F0895FC0161507040019075
S1131B600110D8F7809590958E0F9F1F08950F93BD
S1131B701F93CF93DF93FB01238121FD03C08FEFDC
S1131B809FEF2CC022FF16C04681578124813581E6
S1131B904217530744F4A081B1819D012F5F3F4F49
S1131BA0318320838C93268137812F5F3F4F378386
S1131BB0268314C08B01EC01FB010084F185E02D28
S1131BC00995892BE1F6D80116968D919C9117976A
S1131BD0019617969C938E931697CE01DF91CF9121
S1131BE01F910F910895FA01AA27283051F120314D
S1131BF081F1E8946F936E7F6E5F7F4F8F4F9F4F9D
S1131C00AF4FB1E03ED0B4E03CD0670F781F891FDE
S1131C109A1FA11D680F791F8A1F911DA11D6A0FAC
S1131C20711D811D911DA11D20D009F468943F915F
S1131C302AE0269F11243019305D3193DEF6CF015E
S1131C400895462F4770405D4193B3E00FD0C9F724
S1131C50F6CF462F4F70405D4A3318F0495D31FD91
S1131C604052419302D0A9F7EACFB4E0A6959795E4
S1131C70879577956795BA95C9F7009761057105BA
S1131C8008959B01AC010A2E069457954795379504
S1131C902795BA95C9F7620F731F841F951FA01D5E
S1091CA00895F894FFCF43
S1131CA6640064006400536806A6066106A806007C
S1131CB6000002000000009D080000000053C0F967
S1131CC6A4B0999282D88098BF8E83C7AF92039F9F
S1131CD6250D9949411F0109029E240C9848401E6E
S1131CE60008636D643A2025730D0A00756E6B6EE9
S10D1CF66F776E20636D640D00002B
S9030000FC
