:1000000045C0000053C0000051C000004FC00000B8
:100010004DC000004BC0000049C0000047C00000B8
:1000200045C0000043C0000041C000003FC00000C8
:100030003DC000003BC0000039C0000037C00000D8
:1000400035C0000033C0000031C000002FC00000E8
:100050002DC000002BC0000029C0000027C00000F8
:1000600025C0000023C0000021C000001FC0000008
:100070001DC000001BC0000019C0000017C0000018
:1000800015C0000013C0000011C0000011241FBEE5
:10009000CFEFD0E1DEBFCDBF21E0A0E0B1E001C0F5
:1000A0001D92A430B207E1F753D073C0A9CF81B33A
:1000B000877881BB089520B3422F50E021E030E0E3
:1000C00002C0220F331F6A95E2F72423352321153E
:1000D0003105A1F0FC01E050FF4F408141110EC0FD
:1000E000EFE5FAEE3197F1F700C00000FC01E050B7
:1000F000FF4F21E0208380E090E00895FC01E05074
:10010000FF4F4081413079F4232B81F4FC01E05012
:10011000FF4F10828FE59AEE0197F1F700C00000C3
:1001200081E090E0089580E090E0089580E090E024
:1001300008958FEF8ABB1BBA08958FEF8BBB08958C
:100140001BBA08958AEA8BBB089585E58BBB089599
:10015000AEDFEFDFC0E0D0E063E070E080E090E091
:10016000AADF892BC9F32196C430D10514F0C0E071
:10017000D0E0209711F4E4DFEFCFC130D10511F4C6
:10018000E1DFEACFC230D10511F4DFDFE5CFD5DF03
:06019000E3CFF894FFCF5D
:00000001FF
